:100000000C945B050C9478050C9478050C94780599
:100010000C9478050C9478050C9478050C9478056C
:100020000C9478050C9478050C94D8310C94AC326F
:100030000C947A280C9478050C9478050C94780527
:100040000C9478050C9478050C9478050C9478053C
:100050000C9478050C94E0280C9478050C947805A1
:100060000C9478050C9478050C9478050C9478051C
:100070000C9478050C9478050C9478050C9478050C
:100080000C9478050C9478050C9478050C947805FC
:100090000C9478050C9478050C9478050C947805EC
:1000A0000C9478050C9478050C9478053E204966EC
:1000B0002049206861642061736B65642070656FFE
:1000C000706C652077686174207468657920776149
:1000D0006E7465642C207468657920776F756C6424
:1000E0002068617665207361696420666173746558
:1000F0007220686F727365732E003A2B313A0001DB
:10010000004C002B000100010000001E021400043E
:10011000621D000100290001001A0015641B00394E
:10012000002A00010009001646060005510057216B
:100130000213001761190004514A0022020A000745
:10014000000500000065640153D05C0000006F00F2
:1001500000E3000153C25C000001300000E2002314
:10016000020D000B000E000000296101000F0011BC
:1001700061100002514B0025021800084336005060
:1001800000280001001C000C64370051002B000106
:100190000033001262380052004E000100310001AD
:1001A0000001004F0000002B000100E000E1000111
:1001B0000000000100010004000100010001000135
:1001C00000010015000100010001000100010016FE
:1001D00000010001002C00010001001700010001D6
:1001E0000001000100010001000100000001000108
:1001F00000003000000100000001000100010000CB
:1002000000010000000100010001000100010000E8
:1002100000010001000100110001000100010001C6
:100220000001000800010001000100010001000CB4
:1002300000010001000100010001001200010001A5
:10024000000100010001000100E1000100000001C7
:1002500000010001000100010000003A000100243B
:10026000020100010001003B0035023102010001E2
:10027000004F003C002F0234002E02010050003DD0
:1002800000300234022E00010001003E0001000196
:100290000001000000010044000100000001000016
:1002A00000005C4500010000000100000001003F6B
:1002B00000A800A900AA00000001004000260233A7
:1002C000022F0001000100410027021F023000013F
:1002D000000100420035002D000100010001004333
:1002E00000010020020100010001000100010001E5
:1002F00000010001000000010001000100010001F7
:10030000000000010001000230073001000100017F
:100310000001000330083001000E300100103004ED
:1003200030093001000D3001001130053019050190
:100330000001000100010006301230000001000140
:1003400000010000000100000001000100010000A8
:100350000001000000010001000100010001000097
:10036000000100010001000A300F3001000100010E
:100370000001000100010001001430010001000C27
:1003800030010001001330010001000B30010001B9
:100390000001000100010001000100010000000156
:1003A000000100010001000100000001001E041E08
:1003B000001E050100010001001F041F001F0501B0
:1003C00000010001002004200020050100010001BF
:1003D0000021042100210501000100010022042266
:1003E00000220500000100010001000000010000E2
:1003F00000010001000100000001000000010001F7
:10040000002304230023050000010001002404242C
:100410000024050100010001002504250025050137
:1004200000520001002604260026050100510001AB
:100430000027042700270501000100010001000139
:1004400000010001000000010001000100010001A5
:100450000000000100010001000100010001000195
:100460000001000100010001000100010001000184
:100470000001000100010001000100010001000174
:100480000001000100010001000100000001000165
:100490000001000000010000000100010001000057
:1004A0000001000000010001000100010001000046
:1004B0000001000100010001000100010001000134
:1004C000000100010001000100085D0100010001C0
:1004D0000001000100095D010001000100010001AF
:1004E0000001000100010001000100010000000105
:1004F00000010001000100010000000100010010E6
:1005000000010001000100010001001400010001D0
:10051000001300010001000100010001001561014C
:10052000001D0112000B000100010001001C011759
:1005300000010000000100010001000000010000B6
:1005400000010001000100000001000000010001A5
:100550000001000100010000000100010001000194
:100560000001000100010001000100010001000183
:100570000001000100010001000100010001000173
:100580000001000100010001000100010001000163
:100590000001000100000000000000000000002A2F
:1005A0002B280000000000000000000000000000F8
:1005B000000029000000002C1E34202122243426B3
:1005C00027252E362D3738271E1F202122232425AC
:1005D000263333362E37381F0405060708090A0B61
:1005E0000C0D0E0F101112131415161718191A1BD3
:1005F0001C1D2F3130232D350405060708090A0B71
:100600000C0D0E0F101112131415161718191A1BB2
:100610001C1D2F3130354C00000000000000000090
:1006200000000000000000000000000000000000CA
:1006300000000000000000000000000000000000BA
:1006400000000000000000000000000000000000AA
:10065000000000000000000000000000000000009A
:10066000000000000000000000000000000000008A
:10067000000000000000000000000000000000007A
:10068000000000000000000000000000000000006A
:10069000000000000000000000000000000000005A
:1006A000000000000000000000000000000000004A
:1006B0000000000000000000010101010101000133
:1006C0000101010000000000000000000000000027
:1006D000000100010001010101010101010101010D
:1006E00001010101010101010101010101010101FA
:1006F00001010000000101000000000000000000F6
:1007000000000000000000000000000000000000E9
:100710000000010101010000047F3F1F64321464E6
:100720003214783C1E1E140A052223252628292A65
:100730002C2D2F3032333536383A3B3D3E40424344
:100740004547494A4C4E5051535557595A5C5E6083
:1007500062646668696B6D6F71737577797B7D7F95
:1007600081838587898A8C8E90929496989A9C9E94
:100770009FA1A3A5A7A8AAACAEAFB1B3B4B6B8B9B0
:10078000BBBCBEBFC1C2C3C5C6C7C9CACBCCCDCE18
:10079000D0D1D2D2D3D4D5D6D7D7D8D9D9DADADBFB
:1007A000DBDBDCDCDCDCDCDDDDDDDDDCDCDCDCDC87
:1007B000DBDBDBDADAD9D9D8D7D7D6D5D4D3D2D2C6
:1007C000D1D0CECDCCCBCAC9C7C6C5C3C2C1BFBEAE
:1007D000BCBBB9B8B6B4B3B1AFAEACAAA8A7A5A319
:1007E000A19F9E9C9A98969492908E8C8A898785D8
:1007F00083817F7D7B79777573716F6D6B696866B7
:100800006462605E5C5A5957555351504E4C4A4988
:1008100047454342403E3D3B3A3836353332302F30
:100820002D2C2A292826252322FFAA7F55400001A6
:1008300001010101010101010202020202020202A0
:100840000203030303030303030404040404040472
:100850000505050505060606060607070707070836
:10086000080808090909090A0A0A0B0B0B0C0C0CE9
:100870000D0D0D0E0E0E0F0F0F1010111111121283
:1008800013131414151516161717181819191A1A00
:100890001B1B1C1D1D1E1E1F202021222223242461
:1008A000252626272829292A2B2C2D2D2E2F30319D
:1008B0003232333435363738393A3B3C3D3E3F40AF
:1008C0004142434445464748494A4C4D4E4F50519A
:1008D0005354555658595A5B5D5E5F616264656654
:1008E00068696B6C6D6F7072737577787A7B7D7EDB
:1008F0008082838587888A8C8E8F91939596989A2B
:100900009C9EA0A2A3A5A7A9ABADAFB1B3B5B7BA42
:10091000BCBEC0C2C4C6C9CBCDCFD1D4D6D8DBDD16
:10092000DFE2E4E7E9EBEEF0F3F5F8FAFDFF0403AC
:100930003000000016034500720067006F0044009D
:100940006F007800200045005A00000016034500A3
:10095000720067006F0044006F00780020004500BF
:100960005A0000000403090409023B00020100A030
:10097000FA0904000001030101000921110100012D
:100980002240000705810308000A09040100010351
:1009900000000009211101000122C00007058203A7
:1009A00020000A1201100100000008EDFE071301EB
:1009B000000102030105010902A10185020901A14B
:1009C0000005091901290515002501950575018105
:1009D0000295017503810105010930093115812551
:1009E0007F95027508810609381581257F95017567
:1009F000088106050C0A38021581257F95017508C6
:100A00008106C0C005010980A10185031A81002A61
:100A10008300160100260300950175108100C005B2
:100A20000C0901A10185041A01002A9C021601008B
:100A3000269C02950175108100C005010906A101DF
:100A40008505050719E029E71500250195087501B9
:100A500081020507190029EF1500250195F07501A0
:100A60008102050819012905950575019102950175
:100A700075039101C005010906A101050719E029C7
:100A8000E71500250195087501810295017508811A
:100A9000010507190029FF150026FF0095067508B6
:100AA0008100050819012905950575019102950137
:100AB00075039101C00011241FBECFEFDAE0DEBF45
:100AC000CDBF12E0A0E0B1E0E0E7FDE602C0059096
:100AD0000D92AC31B107D9F723E0ACE1B2E001C02F
:100AE0001D92AC3AB207E1F70E94092F0C9426360A
:100AF0000C94000080B38C7080BB81B3836F81BB8A
:100B0000089584B1807F84B985B1807F85B98AB129
:100B1000837F8AB98BB1837F8BB93E9846980895BD
:100B2000CF93C82F873070F580910601909107010F
:100B3000892B89F564E670E080E40E94581990934F
:100B4000070180930601892BD1F464E670E082E10D
:100B50000E94B4199093070180930601892B79F4C0
:100B600081E090E001C0880FCA95EAF764E670E082
:100B700080950E94B4199093070180930601CF914C
:100B80000C94071A8A30B9F040F4883071F089303B
:100B900079F0209A2898CF9108958C3091F070F0D8
:100BA0008D30B9F73E9A4698F6CF219A2998F3CF1F
:100BB000229A2A98F0CF239A2B98EDCF529A5A98DE
:100BC000EACF539A5B98E7CFCF93873008F040C0C5
:100BD0008091060190910701C0E0892B71F464E6D1
:100BE00070E080E40E9458199093070180930601F9
:100BF000892B31F0C0E00E94071A8C2FCF91089505
:100C000064E670E083E10E94B41990930701809339
:100C10000601892B79F764E670E081E40E94581997
:100C20009093070180930601892B21F784E690E0D9
:100C30000E94E31997FF05C0909307018093060176
:100C4000D9CFC82FC0951092070110920601D3CFBB
:100C5000CFB18FB1869586958C73C3708C2BC82FBE
:100C6000C095CBCF0C9431090E94E60790E0909399
:100C70000701809306010E9481050E947A05EDE13B
:100C8000F2E0ABE2B2E011921D9282E0EB32F807A3
:100C9000D1F78EE00E94470E0C94E20A0E94E6070C
:100CA00090E090930701809306010E9481050E94C5
:100CB0007A05EDE1F2E0119282E0EB32F807D9F724
:100CC0000895EF92FF920F931F93CF93DF9380913C
:100CD000060190910701892B91F080911C028F5F92
:100CE00080931C0281110BC00E94E60790E0909354
:100CF000070180930601892B11F40E947B070BE208
:100D000012E0C0E0D0E087E0E82EEC0E8C2F0E94CD
:100D100090058E2D0E9490058C2F0E94E405F8010D
:100D200091918F01F12C891721F031978083FF2455
:100D3000F3948E2D0E94E405F80196818917D9F06D
:100D4000868381E08F29D82B0E948105CF5FC73031
:100D5000D1F62D2F4EE06DE172E08BE292E00E9421
:100D6000CA0E0E94EC0A81E0DF91CF911F910F9192
:100D7000FF90EF90089580E0E5CFE82FF0E0E35E8C
:100D8000FD4F8081089508953BB1242F20952323A2
:100D90003BB1432B3FB7F894680F791F861797072D
:100DA00011F43FBF0895FC015191CF01E8E04BB928
:100DB000000000C057FF2BB9550F000000C000C055
:100DC00000C02BB900C0EA9591F7E8CF2AB1242BD7
:100DD0002AB9660F771F660F771F0E94C4068FE33C
:100DE00091E00197F1F700C00000089540E80C94ED
:100DF000E606CF93DF938091520380FD37C0E7E58D
:100E0000F3E01182108212821382349683E0E33978
:100E1000F807B9F70E94521964E670E084E80E946E
:100E20005819C7E5D3E064E670E088810E94B419E0
:100E300064E670E089810E94B41964E670E08A81FA
:100E40000E94B41964E670E08B810E94B419249664
:100E500083E0C339D80739F70E94071A6FE070E0C2
:100E600087E593E0DF91CF910C94F606C7E5D3E0D8
:100E7000CE010E945910249683E0C339D807C1F7E8
:100E8000C9CF259A2D9A0895269A2E9A0895279AC1
:100E90002F9A089524B134E0380F81E090E001C02A
:100EA000880F3A95EAF7282B24B995B1892B85B993
:100EB000089556985E98089525982D980895269837
:100EC0002E98089527982F9808950E9459070E94F8
:100ED0005C070E945F070C94620790E09093890082
:100EE0008093880090938B0080938A0090938D006C
:100EF00080938C0008950E9465078FEF0E946D0714
:100F00000E9441072FEF80E792E0215080409040FF
:100F1000E1F700C000000E9444072FEF80E792E055
:100F2000215080409040E1F700C000000E94470738
:100F30002FEF80E792E0215080409040E1F700C021
:100F400000000E945C072FEF80E792E02150804074
:100F50009040E1F700C000000E945F072FEF80E79C
:100F600092E0215080409040E1F700C000000E94D4
:100F700062070C94650789EA8093800089E080937A
:100F8000810024982C983F988AB18F7C8AB96E98FA
:100F9000479A8BB180638BB9769A0E940E27609333
:100FA000490370934A0380934B0390934C036770FB
:100FB0002FEF629FC0011124959587959595879590
:100FC0000E946D070E947B070C942F0980E290E03D
:100FD00090930701809306018091390281110EC020
:100FE0000E94521981E0809339022FEF83ED90E344
:100FF000215080409040E1F700C0000064E670E0BE
:1010000080E40E9458199093070180930601892B70
:1010100009F04EC064E670E080E00E94B41990933D
:10102000070180930601892B09F042C064E670E055
:1010300080E00E94B4199093070180930601892BE8
:10104000B9F564E670E08FE30E94B419909307014C
:1010500080930601892B61F50E94071A64E670E00F
:1010600080E40E9458199093070180930601892B10
:10107000F9F464E670E08CE00E94B41990930701E3
:1010800080930601892BA1F464E670E080E00E9461
:10109000B4199093070180930601892B49F464E603
:1010A00070E08FE30E94B4199093070180930601CA
:1010B0000E94071A80910601089510924903109228
:1010C0004A0310924B0310924C0384E0806180939A
:1010D00049036091490370914A0380914B039091B9
:1010E0004C030E9412270C941E27FC018281882346
:1010F00051F080913A02882319F010923A02089533
:1011000081E080933A020895FC0182818823A9F04E
:1011100080913B02882341F010923B0281EE0E94B5
:101120009B1C8AE10C949B1C81E080933B0281EE26
:101130000E94AE1B8AE10C94AE1B0895CF93DF93FF
:10114000D62FC42FFC018281882319F180EE0E94E2
:10115000AE1B80913A028823B9F08CE20E94AE1B4C
:101160008CE20E949B1C80EE0E949B1C8C2F0E9494
:10117000AE1B8D2F0E94AE1B8D2F0E949B1C8C2FAF
:10118000DF91CF910C949B1C85E00E94AE1B85E003
:10119000E8CFDF91CF910895653140F4E62FF0E07C
:1011A000E85DF94C0C9494340E94840890E080E04F
:1011B00008950E947508FACF40E06EE10E949E08F3
:1011C000F5CF40E06FE1FACF40E060E2F7CF40E0DA
:1011D00061E2F4CF40E062E2F1CF40E063E2EECFC3
:1011E00040E064E2EBCF40E065E2E8CF40E06FE250
:1011F000E5CF41EE64E3E2CF41EEEDCF40E066E0C3
:10120000DDCF40E06DE1DACF40E06DE0D7CF41EED9
:1012100069E1D4CF41EE66E1D1CF41EE65E0CECFBA
:1012200040E062E1CBCF41EE69E0C8CF88302DE5E8
:10123000920729F089309D4559F081E00895FB011E
:1012400082818823D1F38AEF90E00E94DF0AF5CFF4
:10125000FB018281882389F38CEA90E0F6CF0C941D
:101260007A27CF93DF936091E8027091E902809131
:10127000EA029091EB020E949326C82F0E94590720
:101280000E945C070E945F070E946207C33009F456
:101290006BC0C8F5C13009F453C0C23009F45AC05C
:1012A000E0913201F0913301808180FF09C081E03B
:1012B0000E944A0784E690E090938900809388001A
:1012C000E0913201F0913301808181FF09C082E019
:1012D0000E944A0784E690E090938B0080938A00F6
:1012E000E0913201F0913301808182FF09C083E0F7
:1012F0000E944A0784E690E090938D0080938C00D2
:10130000DF91CF910895C43009F43FC0C63041F653
:1013100081E00E944A07C5E0D0E0D0938900C093E5
:10132000880082E00E944A07D0938B00C0938A0015
:1013300083E00E944A07D0938D00C0938C00B0CF09
:1013400083E00E944A0785E090E090938D008093AF
:101350008C00A6CF82E00E944A0785E090E090933F
:101360008B0080938A009CCF83E00E944A07C5E0EF
:10137000D0E0D0938D00C0938C0082E00E944A0799
:10138000D0938B00C0938A008BCF81E00E944A07E4
:1013900085E090E0909389008093880081CFCF937F
:1013A000DF939C013A9521153F4168F5EC01CC276C
:1013B000D170DC01AA27B270AC01442754709C01A3
:1013C0002227387094FF11C080E1CD2B09F480E012
:1013D000AB2B09F08062452B09F08064232B09F0C8
:1013E0008068FB01DF91CF91099481E0CD2B09F456
:1013F00080E0AB2B09F08260452B09F08460232B41
:1014000081F38860EECFDF91CF910895CF93DF9382
:10141000EC01805E9109089720F066ED7FE120974E
:1014200011F464E07DE1CE010E94CF098C2FDF91A1
:10143000CF910C94AE1BCF93DF93EC010E949B1CC9
:10144000CE01805E9109089720F06DED7FE1209735
:1014500011F46BE07DE1CE01DF91CF910C94CF09C7
:10146000CF93DF93EC010E94060ACE01DF91CF916A
:101470000C941B0A81E008950C9416091F93CF93D6
:10148000DF9300D000D00F92CDB7DEB749835A83E7
:101490006B832091760289819A8121111BC066237A
:1014A000A9F00E944925182F682F89819A810E94EE
:1014B000F22469817A81812F0F900F900F900F9005
:1014C0000F90DF91CF911F910C948D0B0E942025DE
:1014D000182FEFCF0E94492569817A81EDCFFC0159
:1014E000408151816281738184810C943E0A1F93F3
:1014F000CF93DF9390E0FC01E956FA4F1491FC0181
:10150000E956F94FD491895E994FFC01C491DD23CE
:1015100019F081EE0E94AE1BCC2319F086EE0E94DA
:10152000AE1B812F0E94F11CCC2319F086EE0E9485
:101530009B1CDD2331F081EEDF91CF911F910C9444
:101540009B1CDF91CF911F910895FF920F931F93E2
:10155000CF93DF938C01F62EF8018491882349F113
:10156000E8012196813049F4FE011491812F0E94F7
:10157000AE1B812F0E949B1C06C0823089F4FE01A5
:1015800084910E94AE1B8E010F5F1F4F8F2D8150E3
:1015900018F3EFE9FFE03197F1F700C00000F7CF53
:1015A000833019F4FE018491E5CF0E94770AE801A7
:1015B000EACFDF91CF911F910F91FF90089560E0E6
:1015C0000C94A50A0E94E026811102C00E947A278D
:1015D0000E941B0F0C94BB070E9432170C9432061A
:1015E000282F2F7041F0822F90E02A3010F44D9672
:1015F00008950697089587E290E0089508950C9461
:10160000FE0A81E008950C94010BCF93C82F0E942D
:10161000FF0A8C2FCF910C94030B08950E94FA1FA0
:101620000E940D0B2FEF84E39CE0215080409040FE
:10163000E1F700C000000C9404290F931F93CF938F
:10164000DF93EC010E946F0A8C01BE010E9492168A
:10165000BE01C8010E943C0A882309F441C0BE01B2
:10166000C8010E94D8168823D9F1BE01C8010E9482
:10167000920F8823A9F1BE01C8010E94EE178823AA
:1016800079F1BE01C8010E942F18882349F1BE01DB
:10169000C8010E949215882319F18A81882341F09C
:1016A00001158CE51807D1F00E3D8CE51807F1F017
:1016B00006311C4551F50E94DE259A819923D9F007
:1016C0008A7A91E009F490E090933C02811111C074
:1016D00089E20E94B9250E94302602C00E940E0BAA
:1016E00080E0DF91CF911F910F9108950E947A279A
:1016F000F7CF85E3EECF80913C02811104C089E2EF
:101700000E94C025E8CF85E3FBCFCE01DF91CF91CA
:101710001F910F910C943A0A0895972F70E026E0DC
:10172000929F600D711D1124FB0194E5899FE00DCE
:10173000F11D1124EE0FFF1FE150FF4F8591949191
:101740000895FC01EE0FFF1FE95EF84F859194911B
:101750000895CF93DF930E948D0B0E946D0DEC01D5
:10176000811520E5920708F042C0811530E4930707
:1017700008F018C1883E910528F5803E910508F0D3
:10178000A4C0883A910588F4853A910508F093C081
:101790008130910509F499C0009709F496C0049727
:1017A00008F093C0D0E0C0E090C08F3B910508F4F2
:1017B00090C0805C9109C03CD105A0F30E94A10BB0
:1017C000EC0183C08115904250F4C11581E0D80727
:1017D00008F07BC0C03FD10528F3D06576C0C115A5
:1017E00090E3D90708F0D4C0CE019F70E7CF8115F0
:1017F00025E5920758F5811534E5930708F001C1F6
:10180000811542E5940750F4C11581E5D80708F425
:10181000CCC0DC2FCC27C16FD06A57C0982F9695CB
:1018200096959E0123703327C115D34508F0DAC081
:10183000C1E0D0E002C0CC0FDD1F2A95E2F720E224
:10184000929FC0011124C82BD92BCAC0C1158AE5AB
:10185000D807A0F4C11599E5D90708F0E2C0C11571
:1018600026E5D20708F4D2C0C11538E5D30708F43D
:1018700099CFDC2FCC27C06FD06A27C0C1154BE5AC
:10188000D40708F48FCFC1158CE5D80708F4D7C06A
:10189000CE0190568115904208F084CF8D2F8F7124
:1018A0000E94040E90E0982F882788279F719C0142
:1018B0002C2BE901B4C0853A910509F4C3C0863ADE
:1018C000910509F0C2C0C2E8D0E4CE01DF91CF910A
:1018D0000895883A910509F4BBC0893A910509F445
:1018E000BAC08A3A910509F4B9C08B3A910509F456
:1018F000B8C08C3A910509F4B7C08B3B910509F447
:10190000B6C08C3B910509F4B5C08D3A910509F438
:10191000B4C0803B910509F4B3C08E3A910509F437
:10192000B2C08F3A910509F4B1C0813B910509F429
:10193000B0C0823B910509F4AFC0833B910509F427
:10194000AEC0843B910509F4ADC0853B910509F417
:10195000ACC0863B910509F4ABC0873B910509F407
:10196000AAC0883B910509F4A9C0893B910509F4F7
:10197000A8C08D3B910509F4A7C08E3B910509F4E1
:10198000A6C08A3B910509F4A5C0C0E0D4E49DCF70
:10199000CE019927D3FF03C0EC01D86C96CFEC01A0
:1019A000D06C93CFDF70D06A90CFCE01E4E09695F3
:1019B0008795EA95E1F783702C2F2695269523705D
:1019C00040E2249F90011124382B8C2F8370C1E0BA
:1019D000D0E002C0CC0FDD1F8A95E2F7C22BD32BDB
:1019E000DC6873CFC1E0D0E002C0CC0FDD1F2A95C8
:1019F000E2F730E2939FC0011124C82BD92BDA689B
:101A000064CFD82FCC27C46FD06A5FCF8C2F0E94B1
:101A1000040EC82FD0E0DC2FCC27CC27DF71D0629A
:101A200054CF8C2F8F700E94040E34E0D695C7954A
:101A30003A95E1F7CF709C2FEC01D06946CFDD27B6
:101A4000D06643CFC1E8D0E440CFC3E8D0E43DCF77
:101A5000C2EED4E43ACFC9EED4E437CFCAEED4E430
:101A600034CFC5EBD4E431CFC6EBD4E42ECFC3EBF7
:101A7000D4E42BCFC4EBD4E428CFC7EBD4E425CFF8
:101A8000CCECD4E422CFCDECD4E41FCFC3E8D5E432
:101A90001CCFCAE8D5E419CFC2E9D5E416CFC4E912
:101AA000D5E413CFC1E2D6E410CFC3E2D6E40DCF24
:101AB000C4E2D6E40ACFC5E2D6E407CFC6E2D6E454
:101AC00004CFC7E2D6E401CFCFE6D4E4FECEC0E730
:101AD000D4E4FBCECAE2D6E4F8CE82389105B1F167
:101AE000B0F48133910509F475C048F48932910549
:101AF00009F469C08A32910509F473C008958533E9
:101B0000910509F459C08933910501F10895833E87
:101B10009105A9F138F4803E9105F9F0823E9105D6
:101B200049F10895863E9105A9F1873E9105C9F1D5
:101B3000843E910519F520919A0321FF1FC08091E1
:101B4000990384FD14C087EE90E0089520919903D5
:101B50002370A1F080EE90E008952091990320FD7C
:101B600047C030919A0330FF09C024FF44C090E081
:101B700080E004C02091990322FDF7CF08952091C1
:101B8000990322FD3BC030919A0330FDE3CF24FF3F
:101B9000F5CFEDCF2091990323FFF0CF24FDE7CFC0
:101BA000D2CF2091990323FD2CC030919A0331FFAD
:101BB000EECF84EE90E008952091990325FFDECFCB
:101BC00089E290E008952091990325FFD7CF85E31E
:101BD00090E008952091990326FFD0CF8AE290E00B
:101BE00008952091990326FFC9CF81E390E00895DD
:101BF00089E390E0089583EE90E0089582EE90E00E
:101C0000089586EE90E008959091990392FF06C0A2
:101C1000282F28712830F9F4877F846093FF06C04D
:101C2000282F28712831F1F4877E846120919A034E
:101C300020FF06C0382F38713830D9F4877F816093
:101C400021FF06C0282F28712831D1F4877E8161B9
:101C500094FD877E0895282F24712430F9F68B7F18
:101C60008860DCCF282F2471243101F78B7E8861B6
:101C7000DDCF382F3171313019F78E7F8860E0CF9A
:101C8000282F2171213121F78E7E8861E1CFCF93FA
:101C9000C82F90E00E94A63480933E0290933F02AA
:101CA000282FFC019BEF8E2F821B8C1710F0CF91F9
:101CB00008959193F8CFEF92FF920F931F93CF93D4
:101CC000DF9310923D0250913E02E52FF0913F02CA
:101CD00040E0A62FB0E07BEF9AEFE92EF12C9E2F8B
:101CE000951B981748F040933D02DF91CF911F91CB
:101CF0000F91FF90EF90089591919B3F81F3292FD1
:101D000030E0691768F08D01021B130B98012D322A
:101D100031056CF09F0121503109E9017883DFCF53
:101D2000E701C21BD30B9E012A0F3B1FF0CF41E0FE
:101D3000D6CF0F931F93CF93DF9310924002509111
:101D40003E0230913D02DB018C01E52FF0913F0214
:101D500090E08E2F851B841748F030933D029093BE
:101D60004002DF91CF911F910F9108956D91E8018D
:101D700089918E01681751F060816B3F49F420838F
:101D8000BD0161507109EB01888331E03196E1CFEB
:101D900091E0FCCFCF92DF92EF92FF921F93CF930F
:101DA000DF937C016B01C42F122F0E94AA286AEFD7
:101DB00070E00E946C34D82F80913D02882319F185
:101DC0006D2F8C2F0E945B0E112369F02D2F4C2F4D
:101DD000B601C701DF91CF911F91FF90EF90DF9087
:101DE000CF900C94990E80913D02882379F38091D5
:101DF00040028111EBCFDF91CF911F91FF90EF90C7
:101E0000DF90CF9008951111E1CFF1CFCF93DF9301
:101E1000EC0197FF0CC0FB018281882341F00E94F6
:101E2000310FCE019F770E94750F0E945D0F81E0F8
:101E3000DF91CF9108958CE090E00E94DE3590E034
:101E4000B0E0A0E080934D0390934E03A0934F0326
:101E5000B0935003089560914D038CE090E00C9492
:101E6000F2350E94DE25809351030E94F125809176
:101E70004D03813089F0882359F0823091F084300D
:101E8000B9F08FE39CE90197F1F700C000000895D5
:101E900082EE0E94AE1BF5CF88E193E00E94300AEB
:101EA000F0CF82EE0E94AE1B87E50E94F11CE9CFC5
:101EB00086EE0E94F11C88E1F8CF80914D038130BD
:101EC00071F0882341F0823031F0843061F08091EC
:101ED00051030C94EE2582EE0E949B1CF8CF8CE2FD
:101EE0000E94F11CF4CF88E2FBCF0F931F93CF9396
:101EF000DF938C01CCE0D0E0C8010C2E02C0969597
:101F000087950A94E2F78F700E94F00A0E94F11CF4
:101F10002497CC3F8FEFD80779F7DF91CF911F91AE
:101F20000F9108950F931F93CF93DF93EC018B01D3
:101F3000FB018281882371F0C33EFCE5DF0719F1C4
:101F400088F4C13EECE5DE07C9F081E0C23EFCE565
:101F5000DF0789F0B801CE01DF91CF911F910F917A
:101F60000C94060FC43E8CE5D80779F084E0C53E9A
:101F7000ECE5DE0779F780934D0302C010924D0324
:101F80000E942B0FE7CF82E0F6CF83E0F4CFAF9231
:101F9000BF92CF92DF92FF920F931F93CF93DF9365
:101FA000362F472FE82FF0E0E25DF74F71110DC09B
:101FB0006491762F862FDF91CF911F910F91FF9023
:101FC000DF90CF90BF90AF900895C72FD0E02491BD
:101FD000F22E022F10E056E0659FC0011124EFEFB2
:101FE000F0E0BF010E946C34832F90E0880F991FAE
:101FF00035E5369FD001379FB00D11248A1B9B0B0E
:10200000982F990F980F6F01CC1ADD0AC09ED0014E
:10201000C19EB00DD09EB00D11248B2F949FA001B6
:102020001124452F55276F01C41AD50AC09EA0015F
:10203000C19E500DD09E500D11245F01A91AB10808
:10204000AC9E6001AD9ED00CBC9ED00C1124CD2C5A
:10205000DD24EC19FD09E09FE001E19FD00DF09F28
:10206000D00D1124ED2F62307105A1F048F46115F7
:10207000710569F06130710589F0EB2F852F07C07C
:102080006430710571F088F066307105B1F76E2F1C
:10209000722F91CFE22F2B2F8D2FF9CFE22F252FEB
:1020A000F6CFEB2F822F2D2FF2CF2B2F8F2DE52F59
:1020B000EECFFC01828120813181982F281708F40E
:1020C000922F391708F4932F9383391B3183291BDF
:1020D0002083891B828308950895CF93DF93762F01
:1020E000E901682F842F0E94C70F798368838A8350
:1020F0001B82DF91CF9108950F931F93CF93DF93AE
:10210000EC0110E000E0909124019017110609F015
:102110006CF40E94F9068C8190E0019681709927F9
:102120008C83DF91CF911F910F91089520914402EC
:10213000200F312F311D220F331F220F331F295A39
:102140003C4F4C81609154038091530396959017B6
:10215000110651F04CF0442349F0409155030E9480
:102160006D100F5F1F4FCFCF4423B9F340E0F7CF7F
:102170000F931F93CF93DF938C01FC018481958192
:1021800001968170992795838483C0E0D5E580917D
:102190002401C81730F0DF91CF911F910F910C945B
:1021A000F906209144022C0F3327331F220F331FCF
:1021B000220F331F295A3C4F8C2F8695F8014481FA
:1021C0005581840F952F911D817040915503609129
:1021D00054038D9F802D11240E946D10CF5FD7CFA7
:1021E0000F931F93CF93809144029091250124E097
:1021F000829FF0011124E95AFC4F891730F1C0E0A9
:1022000060912401C61740F10E94F9062091220135
:1022100080914202820F8093420290912301920F9B
:1022200090932301191654F4082E000C990B409139
:1022300024014150550B841795071CF021952093DC
:102240002201CF911F910F91089511821082128265
:1022500013828F5F3496D1CF0C2F10E070E0C8014D
:102260000E948034E0914402E80F80914202082EDF
:10227000000C990B24E0E29FF001112408171907C4
:10228000ACF080912301082E000C990B8017910768
:102290006CF09F01295A3C4F4091550360915403C3
:1022A000809153030E946D10CF5FAACFE95AFC4F73
:1022B0001182108212821382F7CFAF92BF92CF9217
:1022C000DF92EF92FF920F931F93CF93DF93FC0166
:1022D0008281EE24EA9480FD02C0EE24E394F12C86
:1022E0003FE0B32E80912401F816C8F00E94F90651
:1022F0008091430291E0E91255C0811102C08091A2
:102300002401815080934302DF91CF911F910F915F
:10231000FF90EF90DF90CF90BF90AF900895C09165
:1023200044020F2D10E0C00FD12FD11DCC0FDD1FA7
:10233000CC0FDD1FC95ADC4F198218821A821B820A
:1023400024E0C22ED12CA12C809143028A0D803131
:102350001CF16B2D0E945E34892F082E000C990B06
:102360000817190791F4809155038C9DA0018D9D4C
:10237000500D112455954795559547959E016091AF
:102380005403809153030E946D10AE0CF1E0CF1AFC
:10239000D108D1F6F394A6CF87FFDFCF9091240127
:1023A000890FDBCF90E001966091240170E00E94DC
:1023B0008034A8CFFF920F931F93CF93DF93EC014C
:1023C000F12C0FEF10E060912401F61670F00E94DE
:1023D000F9069A818C8190FF24C08F5F8C83DF91F6
:1023E000CF911F910F91FF900895209144022F0DDE
:1023F0003327331F220F331F220F331F295A3C4F1D
:1024000070E0C8010E948034962F8C814091550362
:1024100060915403F99E800D11240E946D10F39475
:10242000D2CF8150DBCF80915203982F9E7F29F429
:10243000817082608093520308958A34E8F381703A
:102440008864F8CF88E090E00C94E635CF92DF9274
:10245000EF92FF926B017C010E941312B701A6015B
:1024600088E090E0FF90EF90DF90CF900C940436DE
:10247000E2E5F3E083E0808311828FEF8283838340
:10248000148260817181828193810C9426128091E3
:10249000520380FF02C08695089580E00895E2E52A
:1024A000F3E080818E7F808360817181828193815E
:1024B0000E94261210924D022FEF80E792E02150E9
:1024C00080409040E1F700C000000C94F906E2E57E
:1024D000F3E080818E7F808310924D022FEF80E7A2
:1024E00092E0215080409040E1F700C000000C9441
:1024F000F90680915603833018F48F5F809356035A
:10250000609152037091530380915403909155034D
:102510000C94261280915603882319F081508093E1
:10252000560360915203709153038091540390912C
:1025300055030C9426129091520390FF15C0909170
:1025400044022091250134E0939FF0011124E95ABF
:10255000FC4F921710F00C94F9068183608342833C
:1025600013829F5F3496F5CF0895CF93DF9300D009
:1025700000D0CDB7DEB79091520390FF0AC09E0104
:102580002F5F3F4F0E946D104B8169818A810E94AD
:102590009B120F900F900F900F90DF91CF910895A5
:1025A000CF93DF93EC01EC81F0E0E75DF84F4491CD
:1025B000E2E5F3E0628181810E94B5128C818F5F38
:1025C0008C83DF91CF910895CF93DF93EC01E2E507
:1025D000F3E0438162818C810E94B5128C818F5F10
:1025E0008C83DF91CF910895AF92BF92CF92DF920B
:1025F000EF92FF920F931F93CF93DF9300D000D001
:10260000CDB7DEB7182FF62E042FE22E909152038D
:1026100090FF29C0E92FE695AE2FB0E0A451BE4F40
:102620008C9180934C029E7F923061F59E012F5FCA
:102630003F4F812F0E946D104B8169818A810E94DA
:102640009B1210935303F092540300935503EE2012
:1026500051F0609152037091530380915403909113
:1026600055030E9426120F900F900F900F90DF914C
:10267000CF911F910F91FF90EF90DF90CF90BF907F
:10268000AF900895823019F400915503DACF863067
:1026900019F410915303D5CF8930D9F3893189F6D4
:1026A000E9518E2F8170D82EE695F0E0E75DF74F67
:1026B000A590B490C12CBB2460912401C61618F0DB
:1026C0000E94F906BECFEC2DF0E0AE9EC001AF9E99
:1026D000900DBE9E900D112470E00E946C34812FED
:1026E000D11012C0860F209144022E0F3F2F311DB2
:1026F000220F331F220F331F295A3C4F402F6F2DBB
:102700000E946D10C394D8CF861BEDCFE2E5F3E0B5
:102710009181282F438162818CE0890F0C94F412FF
:1027200081E00C948613E2E5F3E09181282F438148
:10273000628184EF890F0C94F41281E00C9493135E
:10274000E2E5F3E062812FEF620F08F46FEF282FCC
:10275000438181810C94F41281E00C94A013E2E592
:10276000F3E062812FEF621B08F460E0282F4381C1
:1027700081810C94F41281E00C94AF13E2E5F3E054
:1027800043812CE0420F08F44FEF282F62818181B2
:102790000C94F41281E00C94BE13E2E5F3E0438163
:1027A0002CE0421B08F440E0282F628181810C94C8
:1027B000F41281E00C94CD1320E00C94F4120F93EA
:1027C0001F93CF93DF9300D000D0CDB7DEB78C013D
:1027D0008091410281110AC09E012F5F3F4F4FEF50
:1027E0006FEF0E946D108A8180934102F80164812D
:1027F000613069F08091410240E0662361F040E081
:10280000623011F44091410280E060E004C06091C8
:10281000410240E080E00E949B12F801848190E038
:10282000019663E070E00E94803484830F900F90E3
:102830000F900F90DF91CF911F910F9108956091AC
:102840005203669570E04BE050E086E291E00E9412
:10285000D135892B19F481E080934D020E94AA287A
:10286000909346028093450208959091520390FF01
:1028700035C09170811128C09260909352036623F5
:1028800051F06091520370915303809154039091E1
:1028900055030E94261260915203669570E04BE04A
:1028A00050E086E291E00E94D135892BA1F0109290
:1028B0004D0281E08093480240915503609154039A
:1028C000809153030C94DC13853210F09864D5CFBB
:1028D000880F982BD2CF0E941F14EBCF0895682F3A
:1028E00090915203969581E0890F853208F081E03E
:1028F0000C94351481E00C946F14682F909152035E
:1029000096958FEF890F09F484E20C94351481E0D9
:102910000C947D1461E00C943514E2E5F3E08081C1
:102920008160808386950C948A148091520380FD87
:102930000C944F120C948D1460E00C94351480911B
:102940004B0281112EC00E94E026811104C00E941A
:102950007A270E9438120E942212609352037093C9
:10296000530380935403909355036E7F61F40E9448
:1029700038120E9422126093520370935303809383
:102980005403909355030E94131210924D028091AC
:10299000520380FF03C086950E949C1481E08093BF
:1029A0004B020895E2E5F3E08081816080838695A3
:1029B0000C949C1410924D0208950F931F93CF9383
:1029C000DF9380914D02882309F48DC080914C02E1
:1029D000E0915203E695E81BE09347028230C9F587
:1029E000F0E0EB5DF84FE491CE2FD0E000ED12E186
:1029F00080914802882389F0109248020E94AA28F8
:102A00009E0120953095820F931F909346028093EC
:102A1000450210924A02109249028091450290911B
:102A200046020E94B6288C179D0708F45CC0E0910E
:102A30004502F0914602CE0FDF1FD0934602C093AD
:102A4000450285E492E0F801DF91CF911F910F914B
:102A50000994863049F4F0E0EE5DF84FE491CE2F12
:102A6000D0E004EE12E1C4CF893051F4E695F0E0F5
:102A7000E15EF84FE491CE2FD0E00AED11E1B8CF3E
:102A80008F3051F4E695F0E0E45EF84FE491CE2FFC
:102A9000D0E00DE511E1ACCF853149F4F0E0E75E1F
:102AA000F84FE491CE2FD0E000EF10E1A1CFC8EEB7
:102AB000D3E008EB10E1883109F49ACF833239F47E
:102AC000E7E1F7E0C591D4910FED13E191CFC4EFA9
:102AD000D1E00CE710E1843209F48ACFC0EDD7E0F1
:102AE0000CE610E185CFDF91CF911F910F910895F2
:102AF000FA01811101C0FB010994CF93DF93C82F24
:102B0000D62F0E9447128C1740F00E9447128D1753
:102B100020F4DF91CF910C947A148C2FDF91CF9118
:102B20000C948A140F931F93CF938C01FB01C281E5
:102B3000CC2309F465C00E94DE258272F801E25CB4
:102B4000FC45E431F10538F4E35CF94C0C94943421
:102B50000E949514C0E08C2FCF911F910F91089582
:102B600047E854E16AE774E10E947815F3CF4AE739
:102B700054E167E874E1F8CF4DE953E160E973E1AE
:102B8000F3CF40E953E16DE973E1EECF4BEB53E155
:102B90006CEA73E1E9CF4CEA53E16BEB73E1E4CF0C
:102BA00049ED53E16AEC73E1DFCF4AEC53E169EDA3
:102BB00073E1DACF4AE852E169E772E1D5CF49E73C
:102BC00052E16AE872E1D0CF81E00E948A14C2CF5C
:102BD00065E082E00E947D15BDCF68E086E0FACF17
:102BE0006EE089E0F7CF64E18FE0F4CF67E185E143
:102BF000F1CF88E1EACF62E289E1ECCF83E2E5CF71
:102C0000C1E0A9CFCF93DF93EC0181E0898B8F8165
:102C10000E94E12588850E94F7250E943026EA81DE
:102C2000FB81309739F06C897D89CE010696DF9162
:102C3000CF910994DF91CF910895CF93DF93EC0169
:102C40008881823039F4FB01828193810E94060AD7
:102C500081E08B87DF91CF910895FC0180818130E5
:102C600029F4FB01808191810C94060A823021F4C1
:102C7000FB0182819381F8CF0895FC01808181302E
:102C800029F4FB01808191810C941B0A823021F48C
:102C9000FB0182819381F8CF0895EF92FF920F9309
:102CA0001F93CF93DF93EC018A85811134C0EB80B1
:102CB000FC8087E5F81A26E12E9DC0012F9D900D1E
:102CC0001124DC01A85FBE4F1496ED91FC9115977D
:102CD000309731F054966D917C91825F9E4F0995AB
:102CE00086E18E9D80018F9D100D1124085F1E4F7F
:102CF000F80187810E94E725F80180850E94FD2563
:102D00000E943026188219861B861E821D82109210
:102D10004F0210924E02DF91CF911F910F91FF90C1
:102D2000EF900895DF92EF92FF920F931F93CF934E
:102D3000DF937C01FB018281882391F08091310136
:102D40008F3F71F0C8E0D1E010E000E0DD24D394C3
:102D500080913101082E000C990B8017910744F4E3
:102D6000DF91CF911F910F91FF90EF90DF90089529
:102D70008E818823C9F089859A858E159F0539F43F
:102D800080914E0290914F028E159F0569F0DF866B
:102D9000FC86EB868989811103C0CE010E94021650
:102DA000CE0106960E944D160F5F1F4F6696D0CF3C
:102DB000EF92FF920F931F93CF93DF937C01975570
:102DC0008F3F910509F0D8F520913101022E000CBA
:102DD000330B2817390714F480933101FB0122814A
:102DE00036E1389F8001399F100D1124E801C85F3A
:102DF000DE4F288B92818E81992349F1FA86E986EC
:102E00008F5F8E830E94AA289E878D870E94172637
:102E10008F830E94DE2588870E94F4259885892B60
:102E20008887E881F981309731F06C897D89C80104
:102E3000825F9E4F0995F0924F02E0924E0281E030
:102E4000DF91CF911F910F91FF90EF90089588230C
:102E5000B1F38989882399F3C801825F9E4F0E944C
:102E60004D16EDCFEF92FF920F931F93CF93DF9309
:102E70008091310110E006E18F3FC1F5DF91CF91E4
:102E80001F910F91FF90EF900895029FF001039F13
:102E9000F00D1124E85FFE4FE288F388E114F1049D
:102EA00019F488ECE82EF12C029FE001039FD00D6D
:102EB0001124C85FDE4F8E818823B9F08D859E85F1
:102EC0000E94B628E816F90680F4109F70011124BC
:102ED0008989811105C0C701885F9E4F0E94021633
:102EE000C701825F9E4F0E944D161F5F212F30E069
:102EF00080913101082E000C990B821793072CF654
:102F0000BDCF0F931F93CF93DF93C62FD42F022FE4
:102F1000FC0182818823C9F0609352020E94AA2892
:102F2000909351028093500280E28C0F883008F019
:102F300050C0C77081E001C0880FCA95EAF7DF91E1
:102F4000CF911F910F910C94041D109152021613F2
:102F500035C080915002909151020E94B628883C61
:102F6000910560F5C0E2CD0F1D17B9F080E2810F29
:102F7000883040F4177081E001C0880F1A95EAF795
:102F80000E940B1DC83048F481E09D2F977001C04E
:102F9000880F9A95EAF70E94041D802F0E94F11C69
:102FA000C830B8F4D77081E001C0880FDA95EAF72D
:102FB000DF91CF911F910F910C940B1D80E28C0F2C
:102FC000883038F4C77081E001C0880FCA95EAF7ED
:102FD000EFCFDF91CF911F910F9108959C01CB010D
:102FE000233F4CE5340731F190F4283DFCE53F07E1
:102FF000E9F0293D4CE5340769F1273D3C4579F47A
:1030000026E241EE61EE0E94811780E00895253F9F
:10301000FCE53F07B9F090F0263F3C45B9F0FC01D4
:1030200082818823D1F010925202089527E245EE62
:1030300065EEE9CF26E241EE60EEE5CF27E245EE10
:1030400064EEE1CF26E241EE62EEDDCF27E245EE0F
:1030500066EED9CF28E241E0EBCF81E00895CF932F
:10306000DF93EC01FB018281882309F419C1C2308E
:10307000FCE5DF07C0F1C6319CE5D90730F09E01C1
:103080002A5F3C452930310570F50E94F326909364
:103090009A0380939903C031ECE5DE0709F4CFC0B1
:1030A00008F05BC0C8308CE5D80709F4B6C088F5D5
:1030B000C430ECE5DE0709F4A8C0C0F4C2308CE5EA
:1030C000D80709F49CC0809199038260C330DC4525
:1030D00009F498C08091990390919A030E94012766
:1030E0000E94FA1F80E0DF91CF91089580919903AB
:1030F0008061C630ECE5DE0709F484C08091990355
:103100008860C730DC4508F47DC0809199038062F7
:1031100079C0CC308CE5D80709F489C070F480916F
:1031200099038C60CA30ECE5DE0709F46BC008F443
:1031300078C0809199038E7F65C0CE308CE5D8072A
:1031400009F479C0809199038B7FCF30DC4508F476
:1031500059C0809199038F7E55C0CB3FECE5DE07C7
:1031600009F457C030F5C3318CE5D80709F46FC0B6
:1031700078F4C131ECE5DE0709F465C0C231DC4505
:1031800009F0A8CF0E94FA1F809199038F773AC067
:10319000C5318CE5D80709F462C008F476C0809187
:1031A0009A038160CA3FDC4509F094CF80939A036B
:1031B00091CFCF3FFCE5DF0709F44DC088F4809143
:1031C0009A038D7FCD3F9CE5D90781F380919A03C7
:1031D0008E7FCE3FDC4550F380919A038360E6CF2B
:1031E000C130FDE5DF0709F459C008F444C080E0B0
:1031F000C230DD4509F06ECF0E947C276BCF8091F5
:10320000990381608093990365CF809199038460CD
:10321000F9CF80919A038260C9CF8091990380642D
:10322000F1CF0E94FA1F809199038068EBCF8091C3
:1032300099038D7FE7CF80919903877FE3CF8091BA
:1032400099038F7DDFCF809199038F7BDBCF8091B6
:103250009903837FD7CF80919A038C7FA7CF8091EA
:10326000990382FB992790F921E0922790FB82F93C
:1032700090FB83F9C7CF80919A03982F9095917016
:103280008E7F892B90FB81F991CF0E94FA1F90913C
:103290009903892F97FB87F98058B4CF81E0ACCF91
:1032A00081E021CF1092B9008CE08093B80008959E
:1032B000EF92FF920F931F93CF93DF93182FEB01A1
:1032C0001092BC0084EA8093BC000E94AA287C0172
:1032D0008091BC0087FF27C08091B900887F88302B
:1032E00029F08091B900887F8031D9F51093BB0017
:1032F00084E88093BC000E94AA288C018091BC00C5
:1033000087FF24C02091B900287F90E080E0283119
:10331000B1F081E090E0203411F490E080E09195EC
:10332000819591090CC0CF3FDC0791F20E94AA2839
:103330008E199F098C179D0758F28EEF9FEFDF9132
:10334000CF911F910F91FF90EF900895CF3FDC0731
:10335000A9F20E94AA28801B910B8C179D0770F27E
:10336000ECCF8FEF9FEFEBCF0F931F93CF93DF93B4
:10337000EB018093BB0084E88093BC000E94AA28E4
:103380008C018091BC0087FF11C02091B900287F7B
:1033900081E090E0283211F490E080E091958195F1
:1033A0009109DF91CF911F910F910895CF3FDC07D5
:1033B00041F30E94AA28801B910B8C179D0708F3EC
:1033C0008EEF9FEFEECF0F931F93CF93DF93EC0120
:1033D00084E88093BC000E94AA288C018091BC00E4
:1033E00087FF08C08091BB0090E0DF91CF911F91D3
:1033F0000F910895CF3FDC0789F30E94AA28801B14
:10340000910B8C179D0750F38EEF9FEFEECF84E961
:103410008093BC00089590935802809357020895BA
:10342000E0915702F0915802309721F00190F0811D
:10343000E02D099480E00895E0915702F091580240
:10344000309799F020914301222359F0209199035C
:1034500027FF07C0DC012C9111962C93119725E0D2
:103460002C930280F381E02D09940895E091570296
:10347000F0915802309739F022E0DC012C9304805F
:10348000F581E02D0994089520915502309156025E
:103490002817390771F09093560280935502E091F6
:1034A0005702F0915802309721F00680F781E02D05
:1034B0000994089520915302309154022817390736
:1034C00071F09093540280935302E0915702F0916F
:1034D0005802309721F00084F185E02D0994089579
:1034E00085B7806885BF85B7806885BF08950895D2
:1034F00008950C94771A08950C947B1A0E94701A00
:103500000E94781A0C94791A81E008950E94A128EB
:103510000E9434060E9436290E949F140C947C1A43
:10352000AF92BF92CF92DF92EF92FF920F931F93D1
:10353000CF93DF93CDB7DEB72A970FB6F894DEBFEF
:103540000FBECDBF0E9461060E94841A882309F431
:1035500061C08AE5A82E82E0B82E10E000E0C02EFF
:10356000802F0E94BD06E82EF501D1905F01D8168C
:1035700009F44AC08091150381FD0E94C30680E0D2
:10358000FF24F394DE249D2D9F21C9F18E83CF82E9
:10359000EF2081E009F480E088870E94AA288160FA
:1035A000782F9A8789874E815F8168858A850E94F6
:1035B000641BF801E65AFD4F8081F826F0820E94D4
:1035C000DD140E94C32A0E94101A90915902891793
:1035D00091F10E94101A809359022A960FB6F8941E
:1035E000DEBF0FBECDBFDF91CF911F910F91FF9036
:1035F000EF90DF90CF90BF90AF900C94050B8F5F52
:10360000FF0C863009F0BFCF0F5F1F4F0E30110542
:1036100009F0A5CF8FEF89838A831B820E94AA2895
:103620008160782F9D838C8349815A816B818D8144
:103630000E94641BC4CF2A960FB6F894DEBF0FBE5B
:10364000CDBFDF91CF911F910F91FF90EF90DF9051
:10365000CF90BF90AF900895CF93DF93DC018C9112
:10366000682F70E021E030E001C0220F8A95EAF770
:1036700011964C91119750E0EA01C859DD4F98819D
:1036800012968C9112978823C9F080917802882332
:10369000C1F086E0849FF001859FF00D1124E60FB4
:1036A000F71FEE0FFF1FEC5BFE4F408151814D93E2
:1036B0005C93292B2883DF91CF910895892F822352
:1036C000E6CF20952923F6CFCF93DF93CDB7DEB792
:1036D0002B970FB6F894DEBF0FBECDBF4F83588730
:1036E00069877A878B878A859B85892B21F0CA0118
:1036F00089238F3FE1F41E821D8285E0FE0137960B
:10370000DE01119601900D928A95E1F749815A8167
:103710006B817C818D819E810E94D2222B960FB677
:10372000F894DEBF0FBECDBFDF91CF910895CE01DB
:1037300007960E942C1BDFCFFC01808191810E94A3
:103740008B2592959F70963041F48091780291E09C
:10375000892780937802909377020895CF93C82F9A
:10376000882309F4E6C08238C1F40E94101A81FD52
:10377000E0C089E30E94B9250E9430262FEF81EE38
:1037800094E0215080409040E1F700C0000089E3C0
:103790000E94C025CF910C9430268338A1F40E945A
:1037A000101A80FDC6C083E50E94B9250E9430260C
:1037B0002FEF81EE94E0215080409040E1F700C06F
:1037C000000083E5E5CF8438A1F40E94101A82FD41
:1037D000B0C087E40E94B9250E9430262FEF81EE09
:1037E00094E0215080409040E1F700C0000087E461
:1037F000CFCF8CEF8C0F813A48F48C2F0E94BE2CD7
:10380000811197C08C2F0E94B925C4CF80E28C0F04
:10381000883048F4C77081E001C0880FCA95EAF784
:103820000E94E125B7CF8BE58C0F833068F481E8E7
:1038300090E0C53A31F083E890E0C63A11F482E8AE
:1038400090E0CF910C94441A88E58C0F873108F0F2
:1038500068C082EE90E0C83A09F460C089EE90E05A
:10386000C93A09F45BC08AEE90E0CA3A09F456C03E
:1038700085EB90E0CB3A09F451C086EB90E0CC3A6E
:1038800009F44CC083EB90E0CB3B09F447C084EBD8
:1038900090E0CC3B09F442C087EB90E0CD3AF1F1E7
:1038A0008CEC90E0C03BD1F18DEC90E0CE3AB1F1E0
:1038B00083E891E0CF3A91F18AE891E0C13B71F160
:1038C00082E991E0C23B51F184E991E0C33B31F1DF
:1038D00081E292E0C43B11F183E292E0C53BF1F05A
:1038E00084E292E0C63BD1F085E292E0C73BB1F0C2
:1038F00086E292E0C83B91F087E292E0C93B71F02A
:103900008FE690E0CD3B51F080E790E0CE3B31F088
:1039100090E080E0CA3B11F48AE292E0CF910C94EF
:103920005A1AC03F30F08C2F0E94D129CF910C94AD
:10393000B82ACF910895882309F452C0823871F4CF
:103940000E94101A81FF4CC089E30E94B9250E9491
:10395000302689E30E94C0250C943026833859F420
:103960000E94101A80FF3CC083E50E94B9250E9486
:10397000302683E5EFCF843859F40E94101A82FF75
:103980002FC087E40E94B9250E94302687E4E2CF49
:103990009CEF980F913AF0F290E2980F983050F423
:1039A000877091E001C0990F8A95EAF7892F0E94EC
:1039B000E725D2CF9BE5980F933020F490E080E08C
:1039C0000C94441A98E5980F973120F490E080E029
:1039D0000C945A1A803F20F00E94392A0C94B82A7D
:1039E0000895CF93C82F0E94AE1BC93349F42FEF1F
:1039F00087EE93E0215080409040E1F700C0000046
:103A00008C2FCF910C949B1C882321F00E94E125E0
:103A10000C9430260895882321F00E94E7250C9409
:103A200030260895BF92CF92DF92EF92FF920F93CC
:103A30001F93CF93DF937C01D62FC72FFC01058105
:103A400002950F70128111110E9404260E94D72541
:103A5000D82E882371F01123B1F080E28D0F8830C9
:103A600090F082E00E947B260E94D72591E0D82E1C
:103A7000D926CC2EC2949FE0C922EC2DF0E0EF5A5B
:103A8000F94C0C949434D12CF4CF0C2F0F70C07FD0
:103A900011F00295007F1123A9F0002359F080E274
:103AA0008D0F883010F0D11109C0802F0E94E125C0
:103AB0000E9430268D2F0E94AE1B14C0802F0E94C2
:103AC000F725F6CF8D2F0E949B1C002359F080E232
:103AD0008D0F883010F0D1112CC0802F0E94E72567
:103AE0000E9430262C2D2850330B2430310520F431
:103AF0000E94101A0E94050BDD2009F423C20E94C7
:103B0000D32580FD1FC2F70112820E94CD250E949D
:103B10005624C7010E94AC1F0E94CD25DF91CF9192
:103B20001F910F91FF90EF90DF90CF90BF900C947A
:103B30007724802F0E94FD25D3CFFC2FFF70BF2E4E
:103B4000C07FC03219F0B29480EFB822DD2339F083
:103B5000D13019F1112359F1002321F1ABCF1123F9
:103B600081F0011106C00E9417268B290E94041DB6
:103B7000B9CF0130C1F70E9417268B290E941D265C
:103B8000B1CF011106C00E9426268B2D0E940B1D6D
:103B9000A9CF013009F4A6CFF6CF112329F00230C6
:103BA00008F0A0CF8B2DE2CF01119CCFEECF0023E8
:103BB00061F3D93349F42FEF37EE83E021503040E1
:103BC0008040E1F700C000008D2F0E949B1C8ACF2F
:103BD0008C2F86958695837069F0813009F082CFAD
:103BE0008D2F9C2F9370111102C090E080E00E94F5
:103BF0005A1A78CF8D2F9C2F9370111102C090E02C
:103C000080E00E94441A6ECF112309F1D53F99F04C
:103C1000D63FB9F0D43F49F4809193039091940337
:103C2000816090939403809393038D2F0E94D129F8
:103C30000E94B82A57CF8091930390919403826099
:103C4000F0CF80919303909194038460EACFD53FA5
:103C500089F0D63FA9F0D43F49F480919303909125
:103C600094038E7F90939403809393038D2F0E94EF
:103C7000392ADECF80919303909194038D7FF2CF08
:103C800080919303909194038B7FECCF8C2F837062
:103C900009F041C0111126CF4D2F4295469547702E
:103CA000440F440F0D2F0F7010E030E020E0042E81
:103CB00004C0000F111F221F331F0A94D2F760E0C7
:103CC00070E0CB01D4FF0FC06FE070E080E090E0C7
:103CD00004C0660F771F881F991F4A95D2F7609519
:103CE000709580959095C695C695C370602B712B85
:103CF000822B932BC23049F058F4C13019F00E9446
:103D00000824F0CE0E94F623EDCE0E941A24EACEBB
:103D10000E94F423E7CE8695112311F08C2F817039
:103D2000882309F4DFCE4D2F429546954770440F06
:103D3000440F0D2F0F7010E030E020E0042E04C07F
:103D4000000F111F221F331F0A94D2F760E070E0AA
:103D5000CB01D4FF0FC06FE070E080E090E004C0C2
:103D6000660F771F881F991F4A95D2F76095709547
:103D700080959095C695C695C370602B712B822B4C
:103D8000932BC23049F058F4C13019F00E94CD2471
:103D9000A9CE0E94BB24A6CE0E94DF24A3CE0E94FF
:103DA0003024A0CECF70112329F08C2F0E945624EE
:103DB0008D2FDCCE8D2F0E940B1D8C2F0E9477241F
:103DC00091CED23F81F160F4D03FC9F0D13F21F1D3
:103DD000112309F441C001116DCE8C2F8F7120C0C9
:103DE000D33F31F1D43FA1F7112361F1CF718C2F73
:103DF0000E94562463E08C2F0E94662673CE112306
:103E000039F001116FCE8C2F8F710E949A246ACEE7
:103E1000023008F067CEF7CF8C2F8F71112371F22B
:103E20000E9456245FCE8C2F8F711123C9F3C6CF09
:103E3000112329F08C2F8F710E94412453CE0E94B0
:103E40003C2450CE81E00E947B26023008F44ACE0A
:103E500082E00E947B2646CE002359F0D93309F038
:103E6000B3CE9FEFE7EEF3E09150E040F040E1F792
:103E7000A9CE8C2F8F71A2CF4C2F4F706D2FC70101
:103E80000E94CC080E946C232DCED23F71F1C8F461
:103E9000D03F01F1D13FB9F180917702002309F4BD
:103EA00046C0882341F08091780291E08927809371
:103EB0007802109277028D2F112389F10E94AE1B98
:103EC00016C0D43FD9F078F0D53F31F711110FC0AB
:103ED00081E006C0112359F08091780291E0892792
:103EE0008093780204C081E01827109378024C2F49
:103EF0004F706D2FC7010E948C0BF4CD1111F7CFBD
:103F000010927802F4CF112339F080917702882340
:103F100019F310927702EBCF0023F1F2E8CF0E9461
:103F20009B1C86E0F70111928A95E9F7E0CF882380
:103F3000F1F21111DCCF8091780291E08927809312
:103F40007802E7CFDF91CF911F910F91FF90EF9013
:103F5000DF90CF90BF9008950F931F93CF93DF937F
:103F6000EC018B819C81892B29F08881998189239F
:103F70008F3F29F4DF91CF911F910F910895CE01CA
:103F80000E941D0B8823B1F3688179818A810E9488
:103F900095258C010E94F1240E94F323B801CE01E3
:103FA000DF91CF911F910F910C94121D882321F066
:103FB0000E94F7250C9430260895882321F00E9452
:103FC000FD250C94302608950E9404260E94142694
:103FD0000E9430260E945A2B0E94B82A90E080E06E
:103FE0000E94441A90E080E00C945A1A0E94C7255F
:103FF0000C94E41F0E94F1250C94F61FE92FE29522
:10400000EF70E250EE3070F4F0E0EF59F94C0C94A0
:104010009434803F19F020F4883E20F481E0089524
:10402000843FE1F380E00895883EC0F3813FD1F7FB
:10403000F5CF93FB882780F908950E948B250C9477
:10404000FE1FCF93DF9300D000D00F92CDB7DEB725
:104050000F900F900F900F900F90DF91CF910895D8
:10406000CF93DF9300D000D000D0CDB7DEB7269637
:104070000FB6F894DEBF0FBECDBFDF91CF9108958C
:104080001F93CF93DF93C091790216E080917A025B
:104090008C1304C0DF91CF911F910895D0E01C9F35
:1040A000F0011D9FF00D1124E558FD4F4081518115
:1040B00062817381848195810E9430202196C7702E
:1040C000E5CF4091AB025091AC026091AD0270918E
:1040D000AE028091AF029091B0020C9430202091FA
:1040E000790290917A0256E0291302C080E0089587
:1040F00030E0529FF001539FF00D1124E558FD4F21
:104100007181761306C07081781303C072817413B5
:1041100004C02F5F3F4F2770E7CF81E008951F93C2
:10412000CF93DF938091B002807FC1F48091AD0284
:104130008823A1F080917902C0917A026091AB024C
:104140007091AC024091AE025091AF02D62FD723AE
:10415000DA01A095B09516E0C81304C0DF91CF91A5
:104160001F91089590E04115510511F0DF3F31F4A2
:1041700001968770F1CF2A0F3B1F17C0189FF001DF
:10418000199FF00D1124E558FD4F21812713F0CF21
:1041900020812613EDCF22812111EACF23813481A2
:1041A0002417350740F3241B350B283C310500F755
:1041B0002091B0022F7020612093B00226E0289F4A
:1041C000F001299FF00D1124E058FD4F80818F7080
:1041D000806180838BEA92E00E94AC1FDF91CF91D7
:1041E0001F910C9440209F92AF92BF92CF92DF928A
:1041F000EF92FF920F931F93CF93DF93CDB7DEB76C
:1042000061970FB6F894DEBF0FBECDBF8C0185E07D
:10421000F801DE011D9601900D928A95E1F7D80113
:10422000DC901196EC9011971296CC901297809199
:10423000AE029091AF02009709F492C12091AB02B7
:104240003091AC02422F43234F3F09F489C11396AA
:10425000AD90BC909090AD02992009F422C1A816AF
:10426000B906E0F1F501E81BF90BCF01FF24F39447
:10427000883C910508F0F12C8091B002982F907F36
:10428000FF2009F4C7C091118EC0FC2C3E112BC039
:104290002D1129C0C11027C08F7080618093B0029A
:1042A0000E9461208BEA92E00E94AC1F8091B002D4
:1042B000D80115968C938F2D61960FB6F894DEBFBA
:1042C0000FBECDBFDF91CF911F910F91FF90EF9067
:1042D000DF90CF90BF90AF909F900895809590957C
:1042E0008A0D9B1DC3CFA114B10429F08E2D8D2101
:1042F0008F3F09F054C180E080FF16C04C2D6E2D19
:104300008D2D0E946F20882379F08BEA92E00E9425
:10431000AC1F86E0EBEAF2E0DF011D928A95E9F737
:104320000E946120F12CC7CFAB2829F08E2D8D2162
:104330008F3F09F031C180E0B82FB170AB2E80FF04
:1043400029C04C2D6E2D8D2D0E946F20B82E81110D
:1043500021C0DD86EE868D859E850E948B25292FC6
:1043600022952F70223050F0243078F49F7051F055
:10437000F8019581907F31F4FB2C9DCF9F7011F057
:104380008823D1F3805E8830B8F3C8010E94AC1F47
:10439000BA2CF2CFCC2009F48ECF8091B00281608C
:1043A0008093B002BFCF3E1106C02D1104C0D801CA
:1043B000CC2009F49CC0DD86EE868D859E850E940A
:1043C0001D20882319F1CC2009F18091B0028032A0
:1043D00070F02091AB023091AC0238872F831986A0
:1043E000BB86AA868C87CE0107960E94AC1F86E00A
:1043F000F801ABEAB2E001900D928A95E1F70E94D4
:104400008F200E946120FF24F39455CFC8010E94A1
:10441000AC1FF9CF911115C07A2DB98AA88A4D2DFC
:104420005E2D6C2D89890E9421208BEA92E00E94EA
:10443000AC1F86E0EBEAF2E0DF011D928A95E9F716
:1044400063C03E1112C02D1110C0C1100EC0F80182
:104450008583C8010E94AC1FEBEAF2E086E0DF0131
:104460001D928A95E9F7F92C26CFDD86EE868D859B
:104470009E850E941D20882349F2CC2039F280912C
:10448000B002803208F4B3CF2091AB023091AC027D
:104490003A8329831B82BD82AC828E83CE01019632
:1044A000A4CFA816B90698F1F501E81BF90BCF01C6
:1044B000F12C883C910508F049C0FC2CCC2009F473
:1044C000A5CF3E1132C02D1130C08091B00280FDC9
:1044D00023C0982F907F01F1D80115968C931597E2
:1044E000903F39F0982F907F905F8F70892B1596B1
:1044F0008C93C8010E94AC1F86E0F801ABEAB2E0E1
:1045000001900D928A95E1F70E946120D4CE8095AA
:1045100090958A0D9B1DCCCF86E0F801ABEAB2E006
:1045200001900D928A95E1F7C6CEDD86EE868D85E7
:104530009E850E941D2081115ACF8091B00281601A
:104540008093B002C8010E94AC1FB5CE7A2DB98A03
:10455000A88A4D2D5E2D6C2D89890E94212069CF5E
:10456000CC2009F453CFDD86EE868D859E850E9492
:104570001D20F82E882309F449CF86E0F801ABEA24
:10458000B2E001900D928A95E1F78BEA92E00E94E9
:104590009C1B0E948F20B8CF81E08C25CDCE81E07E
:1045A0008C25AACE1F93CF93DF93CDB7DEB72C9780
:1045B0000FB6F894DEBF0FBECDBF4F835887698713
:1045C0007A878B879C87CE0107960E94F3208823E9
:1045D00069F08A859B85892B39F04F815885842F16
:1045E00085238F3F09F071C016E05FC086E0FE01B1
:1045F0003796DE01119601900D928A95E1F78A8532
:104600009B85892B89F388859F8189238F3F61F35F
:1046100020917A0230E0C901019687709927409174
:1046200079024817190671F40E94FA1F10927A0253
:104630001092790286E0EBEAF2E0DF011D928A95A2
:10464000E9F7D2CF96E0929FD001939FB00D11244D
:10465000A558BD4FFE01319601900D929A95E1F754
:1046600080937A020E944020BFCF819FC001112415
:1046700085589D4F0E94F3208823E9F0E09179024C
:104680001E9FF0011124E558FD4F40815181628148
:104690007381848195810E9430208091790290E01D
:1046A0000196877099278093790280917902909181
:1046B0007A028913DACF2C960FB6F894DEBF0FBEBC
:1046C000CDBFDF91CF911F91089569857A858B8544
:1046D0009C850E94302088CFEF92FF920F931F930A
:1046E000CF93DF938C01892B81F0F12CEE24E3949E
:1046F000E8012196F8018491843770F4843008F041
:104700005FC08130B1F08230A1F1DF91CF911F9174
:104710000F91FF90EF900895853709F44CC008F48D
:104720003DC09CE7980F903780F78F770E949B1CC5
:1047300049C00E5F1F4FFE01849190E2980F9830A0
:1047400060F48770FE2D01C0FF0F8A95EAF78F2F66
:104750000E9407260E94302602C00E94AE1B8F2DA9
:10476000815030F2EFE9FFE03197F1F700C000002F
:10477000F7CF0E5F1F4FFE01849190E2980F9830A3
:1047800050F48770FE2D01C0FF0F8A95EAF78F2F36
:104790000E940D26DFCF0E949B1CE1CF0E5F1F4FB2
:1047A000FE01C491C150D8F28FE99FE00197F1F763
:1047B00000C00000F7CF0E5F1F4FFE01F490CFCF77
:1047C0000E94AE1B8E01CBCF08950C94E4230E946F
:1047D000E5236093EC027093ED028093EE029093D8
:1047E000EF020C94E41F08950C94E7230F931F939A
:1047F0000091EC021091ED022091EE023091EF0257
:10480000602B712B822B932B1F910F910C94E7231C
:104810000F931F930091EC021091ED022091EE0294
:104820003091EF0260237123822393231F910F9114
:104830000C94E7230F931F930091EC021091ED026B
:104840002091EE023091EF02602771278227932793
:104850001F910F910C94E7230C94E4230C942C24C7
:104860000E942E246093E8027093E9028093EA028A
:104870009093EB020C94E41F60E070E0CB010C9489
:1048800030240F931F9341E050E060E070E08A0114
:104890009B0104C0000F111F221F331F8A95D2F7FE
:1048A000C901B8011F910F910C9430240F931F93ED
:1048B00041E050E060E070E004C0440F551F661F07
:1048C000771F8A95D2F78091E8029091E902A09132
:1048D000EA02B091EB028A019B01082B192B2A2BCB
:1048E0003B2BC901B8011F910F910C9430240F93F9
:1048F0001F9341E050E060E070E004C0440F551F9A
:10490000661F771F8A95D2F7CB01BA016095709523
:10491000809590950091E8021091E9022091EA02B9
:104920003091EB0260237123822393231F910F9117
:104930000C9430240F931F9341E050E060E070E04E
:1049400004C0440F551F661F771F8A95D2F78091C8
:10495000E8029091E902A091EA02B091EB028A018B
:104960009B01082719272A273B27C901B8011F9156
:104970000F910C9430240F931F930091E802109133
:10498000E9022091EA023091EB02602B712B822B1D
:10499000932B1F910F910C9430240F931F93009130
:1049A000E8021091E9022091EA023091EB026023C3
:1049B0007123822393231F910F910C9430240F9322
:1049C0001F930091E8021091E9022091EA023091D0
:1049D000EB0260277127822793271F910F910C9478
:1049E00030240895E92FEE0FE90FEE0F8E0F982F68
:1049F000977041E001C0440F9A95EAF78695869535
:104A0000869595E0899FF0011124EF54FD4F30E029
:104A100020E070E05191DF011197CB01022E02C01E
:104A2000969587950A94E2F781708195852784236E
:104A300085278C932F5F3F4F2530310559F7089517
:104A4000E92FEE0FE90FEE0F8E0F982F97708695D6
:104A50008695869525E0829FF0011124EF54FD4F45
:104A600050E040E080E0219130E0092E02C0369510
:104A700027950A94E2F721703327042E01C0220FF4
:104A80000A94EAF7822B4F5F5F4F4530510559F783
:104A90000895BF92CF92DF92EF92FF920F931F93F0
:104AA000CF93DF938C01C090E802D090E902E090B0
:104AB000EA02F090EB028091EC029091ED02A0915D
:104AC000EE02B091EF02C82AD92AEA2AFB2ACFE1E6
:104AD000D0E0BC2ED701C6010C2E04C0B695A79518
:104AE000979587950A94D2F780FD0EC0219788F795
:104AF000B12C8B2DDF91CF911F910F91FF90EF90F3
:104B0000DF90CF90BF900895B8018C2F0E94A90B21
:104B1000019761F3EECFCF93DF93EC010E9449251B
:104B2000BE01DF91CF910C94A90B1F93CF93DF931C
:104B3000EB0190917602992331F0CB01DF91CF9177
:104B40001F910C948B25882379F0CB010E94492575
:104B5000182F682FCE010E94F224BE01812FDF9111
:104B6000CF911F910C94A90BCB010E942025182FE7
:104B7000F4CF682F80913201909133010C94E52796
:104B8000682F80913201909133010C94F02780912D
:104B90003201909133010C94FB278091F0028595AE
:104BA0008595859508958091F0028770089590917C
:104BB000F002977081E009F480E008958091140379
:104BC000089590911403892B809314030895809580
:104BD00090911403982390931403089580931403E1
:104BE00008951092140308958091130308959091ED
:104BF0001303892B809313030895809590911303D9
:104C0000982390931303089510921303089590919D
:104C10001203892B809312030895809590911203BB
:104C2000982390931203089510921203089580918F
:104C3000F102089508950C941A269091F1029817A4
:104C400021F08093F1020C941B2608958091F102CB
:104C5000882329F01092F10280E00C941B2608951D
:104C6000E0913201F0913301809114038083E0914F
:104C70003201F0913301808190911303892B80835D
:104C8000E0913201F0913301808190911203892BE0
:104C900080839091F102992381F0E0913201F091AB
:104CA00033018081892B808380913201909133017F
:104CB0000E94812781110E942626809132019091C5
:104CC00033010C941C1A08950C94632698E0899F74
:104CD00090011124622B6093F0020E94562480916F
:104CE000F0028595859585950C9464261092F002C6
:104CF00080E00C9464269091F00280958923809343
:104D0000F002282F277071F4282F082E000C330B87
:104D10009217130639F08595859585950E9477241D
:104D20000C9476260895CF92DF92EF92FF926C0159
:104D3000EE24FF2420E0C114D104E104F10419F0B1
:104D4000C701B60120E1C72ED82EE92EFF24C114D9
:104D5000D104E104F10419F0285FC701B6016B0129
:104D60007C0154E0F694E794D794C7945A95D1F710
:104D7000C114D104E104F10419F02C5FC701B6019C
:104D80006B017C0142E0F694E794D794C7944A956E
:104D9000D1F7C114D104E104F10419F02E5FC70169
:104DA000B6019695879577956795672B682B692B44
:104DB00009F02F5F822FFF90EF90DF90CF90089542
:104DC00090E080E00E94EC3521E08C3E9E4F09F09F
:104DD00020E0822F089582E090E00C94DE3583E09D
:104DE00090E00C94DE35CF9384E090E00E94DE35B5
:104DF000C82F81E290E00E94DE35982F8C2FCF9152
:104E00000895CF93C92F682F84E090E00E94F23577
:104E10006C2F81E290E0CF910C94F2358FE090E01E
:104E20000C94E635AB01BC018FE090E00C940436A5
:104E3000AB01BC0183E190E00C94043660E070E0CB
:104E4000CB010C9418276CEE7EEF90E080E00E947E
:104E5000103660E082E090E00E94F23560E083E08E
:104E600090E00E94F2351092EC021092ED02109246
:104E7000EE021092EF0260E084E090E00E94F235D2
:104E800060E081E290E00E94F23560E085E090E031
:104E90000E94F23560E086E090E00E94F2356FEF0C
:104EA00087E090E00E94F23540E050E0BA0188E0EF
:104EB00090E00E94043660E08DE090E00E94F235C0
:104EC00040E050E0BA0188E190E00E94043660E0E2
:104ED00087E190E00E94F23540E050E0BA018CE1B9
:104EE00090E00E94043660E080E290E00E94F2359B
:104EF0000C945D080C942327682F8EE090E00C94AE
:104F0000F235FC01329680914301882321F0809193
:104F100099039EE187FF96E080E0915008F40895A0
:104F200021912223D1F38F5FF8CF9C01FC013296AF
:104F30009FEF80E04191461751F09F3F19F44111D6
:104F400001C0982F8F5F8630A9F79F3F09F408951D
:104F5000290F311D97FD3A95F90162830895FC01EF
:104F6000329608962191261303C0DF0111971C92F7
:104F7000E817F907B9F70895E62FE695E695E6955F
:104F8000EE3168F4E80FF92FF11D677021E030E091
:104F900001C0220F6A95EAF78281822B82830895ED
:104FA000E62FE695E695E695EE3170F4E80FF92FD9
:104FB000F11D677021E030E001C0220F6A95EAF729
:104FC0002095828128232283089520914301222362
:104FD00029F02091990327FD0C94BC270C94952768
:104FE00020914301222329F02091990327FD0C945D
:104FF000D0270C94AF27FC0132968091430188237F
:1050000051F08091990387FF06C08EE1DF011D9268
:105010008A95E9F7089586E0F9CF08950C940D2854
:105020000E940E2880919F03843009F439C01092A9
:10503000160388E190E020E40FB6F894A8958093D9
:1050400060000FBE2093600080E00E94050B0E946C
:10505000DA148091170381110AC081E0809317034D
:10506000809152038170809318030E9467120E94FE
:105070000E2883B7817F846083BF83B7816083BF3D
:105080007894889583B78E7F83BF0FB6F894A895E0
:1050900080916000886180936000109260000FBE74
:1050A00008950895CF930E944E060E9461060E94C3
:1050B0005128C0E08C2F0E94BD06811105C0CF5F32
:1050C000CE30C1F7CF91089581E0FCCF08950C94C4
:1050D00066280E94FA1F0E94101A0E94050B109267
:1050E00017038091180381110E94D2140E941F148B
:1050F0000C9467281F921FB61F9211248F939F93C1
:10510000AF93BF9380911603811113C080919503D3
:1051100090919603A0919703B09198034196A11D99
:10512000B11D8093950390939603A0939703B0933A
:105130009803BF91AF919F918F911F901FBE1F90B9
:10514000189582E084BD93E095BD9AEF97BD80935A
:105150006E0008952FB7F89480919503909196036F
:10516000A0919703B09198032FBF0895CF92DF923B
:10517000EF92FF920F931F932FB7F89440919503EE
:105180005091960360919703709198032FBF6A0125
:105190007B01EE24FF248C0130E020E0C016D10614
:1051A000E206F30650F0481B590BCA011F910F91FC
:1051B000FF90EF90DF90CF90089541505109F3CFC9
:1051C00078941F921FB61F9211248F939F93AF93D1
:1051D000BF938091950390919603A0919703B0910E
:1051E00098030196A11DB11D80939503909396039A
:1051F000A0939703B0939803BF91AF919F918F9124
:105200001F901FBE1F901895F89481E08093E000D6
:1052100080E28093D800E9ECF0E010828FE19EE418
:105220000197F1F700C000001DBA109268001CBC85
:1052300010BE1FBA10927A0010926E0010926F008A
:1052400010927100109272001082ECEBF0E010826C
:1052500014B817B81AB81DB810BA108215B818B813
:105260001BB81EB811BA0C94003F08950E94E026A6
:10527000811102C00E947A270E94EB2680931503B9
:105280000E94F32690939A03809399030E94EF263D
:10529000682F70E090E080E00C94F42380911D036F
:1052A00080FF12C06091370185E0689FB001112432
:1052B000759567957595679560387105A8F56115C1
:1052C0007105A1F1862F089581FF09C06091370112
:1052D00085E0689FB001112475956795EDCF6091C9
:1052E000370182FD0AC080911C038823D1F0909180
:1052F000360160913701891728F085E0689FB00179
:105300001124DACF869FB001112485E0869F900199
:10531000879F300D1124692F70E0C9010E948034ED
:10532000CBCF65E070E0CECF8FE7089581E00895A0
:1053300080911D0380FF0CC06091350170E0759570
:105340006795759567956115710549F1862F0895E3
:1053500081FF06C06091350170E075956795F3CFC8
:105360006091350182FD0BC090911C039923A1F03F
:105370006091340180913501961738F0682F70E004
:105380006038710500F38FE70895899FC0011124EB
:1053900070E00E948034F4CF61E070E0D7CF81E00C
:1053A0000895803F31F40E944E2981958093210316
:1053B0000895813F19F40E944E29F8CF823F31F4BD
:1053C0000E944E298195809320030895833F19F40C
:1053D0000E944E29F8CF893F29F40E949829809392
:1053E000220308958A3F21F40E9498298195F7CFDE
:1053F0008B3F31F40E94982981958093230308956F
:105400008C3F19F40E949829F8CF843F31F48091A1
:105410001F03816080931F030895853F21F48091CD
:105420001F038260F7CF863F21F480911F038460C1
:10543000F1CF873F21F480911F038860EBCF883F35
:1054400021F480911F038061E5CF8D3F31F480917D
:105450001D03816080931D0308958E3F21F4809188
:105460001D038260F7CF8F3FB9F780911D038460E1
:10547000F1CF90912003803F41F48091210387FD7B
:1054800010922103992371F00895813F29F48091AE
:1054900021031816ACF3F6CF823F81F497FFF2CFC9
:1054A000109220038091210390912203892B9091E7
:1054B0002303892B49F710921C030895833F19F4A5
:1054C000191674F3DFCF893F39F48091220318163F
:1054D000CCF610922203D6CF8A3F29F48091220382
:1054E00087FFD0CFF6CF8B3F39F48091230387FF1E
:1054F000C9CF10922303C6CF8C3F29F48091230398
:105500001816BCF3BFCF843F31F480911F038E7F08
:1055100080931F03B7CF853F21F480911F038D7FB8
:10552000F7CF863F21F480911F038B7FF1CF873F18
:1055300021F480911F03877FEBCF883F21F4809176
:105540001F038F7EE5CF8D3F31F480911D038E7F49
:1055500080931D0397CF8E3F21F480911D038D7F93
:10556000F7CF8F3F09F08ECF80911D038B7FF0CF57
:105570008EE193E00E94361A0E94AA2890931B03A2
:1055800080931A0308951F93CF93DF9380911A039A
:1055900090911B030E94B628AC0190911C032091AE
:1055A000380130E0911106C0209119038AE0289F4C
:1055B000900111244217530778F020912003C091E5
:1055C0002103D091220310912303211109C08C2FB4
:1055D0008D2B812B09F06AC0DF91CF911F91089527
:1055E0009F3F19F09F5F90931C03121624F40E94B2
:1055F0004E29809320038091200387FF05C00E94DD
:105600004E298195809320031C1624F40E944E2974
:10561000809321038091210387FF05C00E944E29BA
:10562000819580932103309120033323A1F02091B1
:105630002103222381F045EB3403C0011124992377
:1056400069F19093200345EB240390011124332347
:1056500049F1309321031D1624F40E949829809368
:1056600022038091220387FF05C00E94982981951B
:1056700080932203111624F40E9498298093230317
:105680008091230387FF05C00E949829819580930C
:105690002303DF91CF911F910C94B82A81E080936E
:1056A0002003D1CF81E080932103D5CF9F3F09F024
:1056B00099CFAACF86E0EEE1F3E0DF011D928A9553
:1056C000E9F710921C0310921D030895833081F1B5
:1056D00028F4813059F08230D1F00895853009F4F2
:1056E00049C0B8F1863009F456C008958091190375
:1056F000482F460F5527551F4F3F510524F4680F7B
:105700006093190308958FEF809319030895809192
:105710003801482F460F5527551F4F3F510524F498
:10572000680F6093380108958FEF809338010895D2
:1057300080913701482F460F5527551F4F3F510580
:1057400024F4680F6093370108958FEF8093370139
:10575000089580913601482F460F5527551F4F3F1A
:10576000510524F4680F6093360108958FEF8093FC
:105770003601089580913501482F460F5527551F52
:105780004F3F510524F4680F6093350108958FEF62
:1057900080933501089580913401482F460F552795
:1057A000551F4F3F510524F4680F6093340108954D
:1057B0008FEF809334010895833011F128F4813004
:1057C00049F0823091F00895853081F120F18630E2
:1057D000C1F1089580911903681720F4861B809306
:1057E00019030895109219030895809138016817DC
:1057F00020F4861B80933801089510923801089593
:1058000080913701681720F4861B80933701089533
:1058100010923701089580913601681720F4861B95
:1058200080933601089510923601089580913501D4
:10583000681720F4861B8093350108951092350176
:10584000089580913401681720F4861B80933401F9
:1058500008951092340108950F931F9341E050E092
:1058600060E070E08A019B0104C0000F111F221F3D
:10587000331F8A95D2F7C901B8010E94F4231F9102
:105880000F910C94FA1FEBEFE80FEF3308F065C0AF
:10589000F0E0E159F94C0C9494340E947A2781E0AD
:1058A000089580911503807F8093150381E0809394
:1058B000250308950E94FA1F2FEF83ED90E32150F6
:1058C00080409040E1F700C000000E940429E7CF2B
:1058D00090911503892F8E7F90FF8160809315032F
:1058E00080FDDDCF817F80931503D9CF9091150383
:1058F000892F8D7F91FF82608093150381FFCFCF29
:10590000809115038160EFCF90911503892F8B7FD4
:1059100092FF84608093150382FDF2CFC0CF9091F7
:105920001503892F877F93FF88608093150383FD7C
:10593000E7CFB5CF0E94FA1F90919903892F97FB6B
:1059400087F9805880939903AACF80E00E942C2C7D
:10595000A6CF8953FBCF8D51F9CF80E0089580E029
:1059600008950C94AF2C8E518A3030F4E82FF0E07B
:10597000EF5EFD4F8081089580E00895CF93C82F9A
:10598000809125038130E1F0882329F08230E9F10C
:105990001092250313C00E94DE25813159F48C2F0B
:1059A0000E94AF2C811125C08C2F0E94432C817046
:1059B000CF9108950E94DE25823289F380E0F8CFEE
:1059C0000E94DE25813159F30E94DE25823239F3AF
:1059D0008C2F0E94B12C81110AC0C43199F060F45F
:1059E000CB3029F0C03119F782E08093250381E0A4
:1059F000DECF81E090E0DBCFC93221F0C833B9F3CC
:105A000080E0D5CF10922503FBCFC93219F188F47D
:105A1000C43101F120F4C73081F181E0C9CF82EEB9
:105A20008C0F8630D0F78C2F0E94B32C80932403E8
:105A3000F4CFCE3401F140F46AE0CB3471F78091B9
:105A400024030E94662BE9CFC13579F061E0C235AD
:105A5000B1F3E3CF80912403882319F0109224033B
:105A6000DCCF81E080932503A3CF61E08091240304
:105A70000E94DC2BD2CF6AE0F9CF1092190384E1A7
:105A800080933801C09337018CE38093360188E01E
:105A90008093350188E280933401BFCF8091460323
:105AA00008950F931F93CF93DF9300D00F92CDB73C
:105AB000DEB78C010E94B02F823011F0843021F5C6
:105AC00084E089831B830A8382E08093E9008FEF5F
:105AD0009091E800815095FD06C095ED9A95F1F7FB
